:100000000C9446000C945D000C945D000C945D0013
:100010000C945D000C945D000C945D000C945D00EC
:100020000C945D000C945D000C945D000C945D00DC
:100030000C945D000C945D000C945D000C945D00CC
:100040000C945D000C945D000C945D000C945D00BC
:100050000C945D000C945D000C945D000C945D00AC
:100060000C945D000C945D000C945D000C945D009C
:100070000C945D000C945D000C945D000C945D008C
:100080000C945D000C945D000C945D0011241FBE67
:10009000CFEFD0E4DEBFCDBF11E0A0E0B1E0E4E6F9
:1000A000F1E000E00BBF02C007900D92AE30B10747
:1000B000D9F70E9476000C94B0000C940000CF9306
:1000C000C82F8A3019F48DE00E945F008091C00033
:1000D00085FFFCCFC093C60080E090E0CF910895EB
:1000E000EAE7F0E08081806E8083089511B88FEF99
:1000F00082B984B915B80E947000809178009091FF
:10010000790080379105D8F0803E9105D0F0803598
:1001100021E09207C0F0803C21E09207B0F08033EC
:1001200022E09207A0F0803A22E0920790F080311E
:1001300023E0920780F08138934078F00FC0C1E04F
:100140000DC0C3E00BC0C7E009C0CFE007C0CFE1DE
:1001500005C0CFE303C0CFE701C0CFEFC5B9CDCF16
:04016000F894FFCF41
:0E01640000000002000000005F00000000002C
:00000001FF
